{
  "contractName": "LendingContract",
  "abi": [
    {
      "inputs": [
        {
          "internalType": "address payable",
          "name": "_lender",
          "type": "address"
        },
        {
          "internalType": "address payable",
          "name": "_borrower",
          "type": "address"
        },
        {
          "internalType": "uint256",
          "name": "_rate",
          "type": "uint256"
        },
        {
          "internalType": "address",
          "name": "_tokenContractAddress",
          "type": "address"
        }
      ],
      "payable": false,
      "stateMutability": "nonpayable",
      "type": "constructor"
    },
    {
      "constant": true,
      "inputs": [],
      "name": "borrower",
      "outputs": [
        {
          "internalType": "address payable",
          "name": "",
          "type": "address"
        }
      ],
      "payable": false,
      "stateMutability": "view",
      "type": "function"
    },
    {
      "constant": true,
      "inputs": [],
      "name": "collateralDeposited",
      "outputs": [
        {
          "internalType": "uint256",
          "name": "",
          "type": "uint256"
        }
      ],
      "payable": false,
      "stateMutability": "view",
      "type": "function"
    },
    {
      "constant": true,
      "inputs": [],
      "name": "currentStage",
      "outputs": [
        {
          "internalType": "enum LendingContract.Stage",
          "name": "",
          "type": "uint8"
        }
      ],
      "payable": false,
      "stateMutability": "view",
      "type": "function"
    },
    {
      "constant": true,
      "inputs": [],
      "name": "lender",
      "outputs": [
        {
          "internalType": "address payable",
          "name": "",
          "type": "address"
        }
      ],
      "payable": false,
      "stateMutability": "view",
      "type": "function"
    },
    {
      "constant": true,
      "inputs": [],
      "name": "priceUpdater",
      "outputs": [
        {
          "internalType": "contract PriceUpdaterInterface",
          "name": "",
          "type": "address"
        }
      ],
      "payable": false,
      "stateMutability": "view",
      "type": "function"
    },
    {
      "constant": true,
      "inputs": [],
      "name": "rate",
      "outputs": [
        {
          "internalType": "uint256",
          "name": "",
          "type": "uint256"
        }
      ],
      "payable": false,
      "stateMutability": "view",
      "type": "function"
    },
    {
      "constant": true,
      "inputs": [],
      "name": "signingTime",
      "outputs": [
        {
          "internalType": "uint256",
          "name": "",
          "type": "uint256"
        }
      ],
      "payable": false,
      "stateMutability": "view",
      "type": "function"
    },
    {
      "constant": true,
      "inputs": [],
      "name": "tokenContract",
      "outputs": [
        {
          "internalType": "contract ERC20Interface",
          "name": "",
          "type": "address"
        }
      ],
      "payable": false,
      "stateMutability": "view",
      "type": "function"
    },
    {
      "constant": true,
      "inputs": [],
      "name": "tokensDeposited",
      "outputs": [
        {
          "internalType": "uint256",
          "name": "",
          "type": "uint256"
        }
      ],
      "payable": false,
      "stateMutability": "view",
      "type": "function"
    },
    {
      "constant": true,
      "inputs": [],
      "name": "getLoanTime",
      "outputs": [
        {
          "internalType": "uint256",
          "name": "val",
          "type": "uint256"
        }
      ],
      "payable": false,
      "stateMutability": "view",
      "type": "function"
    },
    {
      "constant": true,
      "inputs": [],
      "name": "getDebtPerTime",
      "outputs": [
        {
          "internalType": "uint256",
          "name": "val",
          "type": "uint256"
        }
      ],
      "payable": false,
      "stateMutability": "view",
      "type": "function"
    },
    {
      "constant": true,
      "inputs": [],
      "name": "getRemainingFees",
      "outputs": [
        {
          "internalType": "uint256",
          "name": "val",
          "type": "uint256"
        }
      ],
      "payable": false,
      "stateMutability": "view",
      "type": "function"
    },
    {
      "constant": true,
      "inputs": [],
      "name": "getTotalDebt",
      "outputs": [
        {
          "internalType": "uint256",
          "name": "val",
          "type": "uint256"
        }
      ],
      "payable": false,
      "stateMutability": "view",
      "type": "function"
    },
    {
      "constant": true,
      "inputs": [
        {
          "internalType": "uint256",
          "name": "_collateral",
          "type": "uint256"
        },
        {
          "internalType": "uint256",
          "name": "_price",
          "type": "uint256"
        },
        {
          "internalType": "uint256",
          "name": "_tokens",
          "type": "uint256"
        }
      ],
      "name": "getLiquidationDanger",
      "outputs": [
        {
          "internalType": "bool",
          "name": "success",
          "type": "bool"
        }
      ],
      "payable": false,
      "stateMutability": "view",
      "type": "function"
    },
    {
      "constant": true,
      "inputs": [],
      "name": "getLiquidationDanger",
      "outputs": [
        {
          "internalType": "bool",
          "name": "success",
          "type": "bool"
        }
      ],
      "payable": false,
      "stateMutability": "view",
      "type": "function"
    },
    {
      "constant": false,
      "inputs": [
        {
          "internalType": "uint256",
          "name": "sum",
          "type": "uint256"
        }
      ],
      "name": "depositTokens",
      "outputs": [],
      "payable": false,
      "stateMutability": "nonpayable",
      "type": "function"
    },
    {
      "constant": false,
      "inputs": [],
      "name": "sign",
      "outputs": [],
      "payable": true,
      "stateMutability": "payable",
      "type": "function"
    },
    {
      "constant": false,
      "inputs": [
        {
          "internalType": "bool",
          "name": "selfDestructConfirm",
          "type": "bool"
        }
      ],
      "name": "withdrawTokensPrematurely",
      "outputs": [],
      "payable": false,
      "stateMutability": "nonpayable",
      "type": "function"
    },
    {
      "constant": false,
      "inputs": [
        {
          "internalType": "bool",
          "name": "selfDestructConfirm",
          "type": "bool"
        }
      ],
      "name": "liquidatePanic",
      "outputs": [],
      "payable": false,
      "stateMutability": "nonpayable",
      "type": "function"
    },
    {
      "constant": false,
      "inputs": [
        {
          "internalType": "bool",
          "name": "selfDestructConfirm",
          "type": "bool"
        }
      ],
      "name": "returnCollateral",
      "outputs": [],
      "payable": false,
      "stateMutability": "nonpayable",
      "type": "function"
    }
  ],
  "bytecode": "0x60806040526000600555600060065560006007556000600860006101000a81548160ff021916908360048111156200003357fe5b0217905550670de0b6b3a7640000600955670de0b6b3a7640000600a55633b9aca00600b5561012c600c553480156200006b57600080fd5b50604051620024ad380380620024ad833981810160405260808110156200009157600080fd5b8101908080519060200190929190805190602001909291908051906020019092919080519060200190929190505050836000806101000a81548173ffffffffffffffffffffffffffffffffffffffff021916908373ffffffffffffffffffffffffffffffffffffffff16021790555082600160006101000a81548173ffffffffffffffffffffffffffffffffffffffff021916908373ffffffffffffffffffffffffffffffffffffffff1602179055508160028190555080600360006101000a81548173ffffffffffffffffffffffffffffffffffffffff021916908373ffffffffffffffffffffffffffffffffffffffff160217905550604051620001979062000224565b604051809103906000f080158015620001b4573d6000803e3d6000fd5b50600460006101000a81548173ffffffffffffffffffffffffffffffffffffffff021916908373ffffffffffffffffffffffffffffffffffffffff1602179055506001600860006101000a81548160ff021916908360048111156200021557fe5b02179055505050505062000232565b610335806200217883390190565b611f3680620002426000396000f3fe60806040526004361061011f5760003560e01c80637df1f1b9116100a0578063e24e54aa11610064578063e24e54aa1461048e578063e96ccea5146104cb578063f66a0c90146104f6578063fa2ef06914610521578063fc612a8d1461054c5761011f565b80637df1f1b91461033957806399e5aaa914610390578063afd3f322146103bf578063bcead63e146103fc578063dd49756e146104535761011f565b806355a373d6116100e757806355a373d6146102165780635bf5d54c1461026d5780636311d06a146102a657806364098d27146102d15780637a43ec74146102fc5761011f565b80630d1183161461012457806322ae82801461018b5780632c4e722e146101b65780632ca15122146101e157806334ce998a146101eb575b600080fd5b34801561013057600080fd5b506101716004803603606081101561014757600080fd5b810190808035906020019092919080359060200190929190803590602001909291905050506105a3565b604051808215151515815260200191505060405180910390f35b34801561019757600080fd5b506101a06105d6565b6040518082815260200191505060405180910390f35b3480156101c257600080fd5b506101cb6105dc565b6040518082815260200191505060405180910390f35b6101e96105e2565b005b3480156101f757600080fd5b50610200610ae1565b6040518082815260200191505060405180910390f35b34801561022257600080fd5b5061022b610af4565b604051808273ffffffffffffffffffffffffffffffffffffffff1673ffffffffffffffffffffffffffffffffffffffff16815260200191505060405180910390f35b34801561027957600080fd5b50610282610b1a565b6040518082600481111561029257fe5b60ff16815260200191505060405180910390f35b3480156102b257600080fd5b506102bb610b2d565b6040518082815260200191505060405180910390f35b3480156102dd57600080fd5b506102e6610b33565b6040518082815260200191505060405180910390f35b34801561030857600080fd5b506103376004803603602081101561031f57600080fd5b81019080803515159060200190929190505050610b4b565b005b34801561034557600080fd5b5061034e611025565b604051808273ffffffffffffffffffffffffffffffffffffffff1673ffffffffffffffffffffffffffffffffffffffff16815260200191505060405180910390f35b34801561039c57600080fd5b506103a561104b565b604051808215151515815260200191505060405180910390f35b3480156103cb57600080fd5b506103fa600480360360208110156103e257600080fd5b81019080803515159060200190929190505050611108565b005b34801561040857600080fd5b50610411611430565b604051808273ffffffffffffffffffffffffffffffffffffffff1673ffffffffffffffffffffffffffffffffffffffff16815260200191505060405180910390f35b34801561045f57600080fd5b5061048c6004803603602081101561047657600080fd5b8101908080359060200190929190505050611455565b005b34801561049a57600080fd5b506104c9600480360360208110156104b157600080fd5b81019080803515159060200190929190505050611759565b005b3480156104d757600080fd5b506104e0611c50565b6040518082815260200191505060405180910390f35b34801561050257600080fd5b5061050b611c5c565b6040518082815260200191505060405180910390f35b34801561052d57600080fd5b50610536611c62565b6040518082815260200191505060405180910390f35b34801561055857600080fd5b50610561611c7b565b604051808273ffffffffffffffffffffffffffffffffffffffff1673ffffffffffffffffffffffffffffffffffffffff16815260200191505060405180910390f35b6000600a54600b54606460968502816105b857fe5b0402816105c157fe5b048385816105cb57fe5b041090509392505050565b60055481565b60025481565b600160009054906101000a900473ffffffffffffffffffffffffffffffffffffffff168073ffffffffffffffffffffffffffffffffffffffff163373ffffffffffffffffffffffffffffffffffffffff16146106a6576040517f08c379a00000000000000000000000000000000000000000000000000000000081526004018080602001828103825260188152602001807f54582073656e742062792077726f6e67206163636f756e74000000000000000081525060200191505060405180910390fd5b600460009054906101000a900473ffffffffffffffffffffffffffffffffffffffff1673ffffffffffffffffffffffffffffffffffffffff1663b5eb9c876040518163ffffffff1660e01b815260040160206040518083038186803b15801561070e57600080fd5b505afa158015610722573d6000803e3d6000fd5b505050506040513d602081101561073857600080fd5b8101908080519060200190929190505050600c544203106107c1576040517f08c379a000000000000000000000000000000000000000000000000000000000815260040180806020018281038252601e8152602001807f507269636520776173206e6f74207570646174656420726563656e746c79000081525060200191505060405180910390fd5b60028060048111156107cf57fe5b600860009054906101000a900460ff1660048111156107ea57fe5b1461085d576040517f08c379a000000000000000000000000000000000000000000000000000000000815260040180806020018281038252600b8152602001807f57726f6e6720737461676500000000000000000000000000000000000000000081525060200191505060405180910390fd5b6000151561091034600460009054906101000a900473ffffffffffffffffffffffffffffffffffffffff1673ffffffffffffffffffffffffffffffffffffffff166398d5fdca6040518163ffffffff1660e01b815260040160206040518083038186803b1580156108cd57600080fd5b505afa1580156108e1573d6000803e3d6000fd5b505050506040513d60208110156108f757600080fd5b81019080805190602001909291905050506005546105a3565b151514610968576040517f08c379a0000000000000000000000000000000000000000000000000000000008152600401808060200182810382526041815260200180611e686041913960600191505060405180910390fd5b34600681905550426007819055506003600860006101000a81548160ff0219169083600481111561099557fe5b021790555060001515600360009054906101000a900473ffffffffffffffffffffffffffffffffffffffff1673ffffffffffffffffffffffffffffffffffffffff1663a9059cbb336005546040518363ffffffff1660e01b8152600401808373ffffffffffffffffffffffffffffffffffffffff1673ffffffffffffffffffffffffffffffffffffffff16815260200182815260200192505050602060405180830381600087803b158015610a4957600080fd5b505af1158015610a5d573d6000803e3d6000fd5b505050506040513d6020811015610a7357600080fd5b810190808051906020019092919050505015151415610add576040517f08c379a000000000000000000000000000000000000000000000000000000000815260040180806020018281038252602b815260200180611ed7602b913960400191505060405180910390fd5b5050565b6000610aeb610b33565b60055401905090565b600360009054906101000a900473ffffffffffffffffffffffffffffffffffffffff1681565b600860009054906101000a900460ff1681565b60065481565b6000610b3d611c50565b610b45611c62565b02905090565b6000809054906101000a900473ffffffffffffffffffffffffffffffffffffffff168073ffffffffffffffffffffffffffffffffffffffff163373ffffffffffffffffffffffffffffffffffffffff1614610c0e576040517f08c379a00000000000000000000000000000000000000000000000000000000081526004018080602001828103825260188152602001807f54582073656e742062792077726f6e67206163636f756e74000000000000000081525060200191505060405180910390fd5b600460009054906101000a900473ffffffffffffffffffffffffffffffffffffffff1673ffffffffffffffffffffffffffffffffffffffff1663b5eb9c876040518163ffffffff1660e01b815260040160206040518083038186803b158015610c7657600080fd5b505afa158015610c8a573d6000803e3d6000fd5b505050506040513d6020811015610ca057600080fd5b8101908080519060200190929190505050600c54420310610d29576040517f08c379a000000000000000000000000000000000000000000000000000000000815260040180806020018281038252601e8152602001807f507269636520776173206e6f74207570646174656420726563656e746c79000081525060200191505060405180910390fd5b610d3161104b565b610d86576040517f08c379a0000000000000000000000000000000000000000000000000000000008152600401808060200182810382526027815260200180611e0e6027913960400191505060405180910390fd5b6003806004811115610d9457fe5b600860009054906101000a900460ff166004811115610daf57fe5b14610e22576040517f08c379a000000000000000000000000000000000000000000000000000000000815260040180806020018281038252600b8152602001807f57726f6e6720737461676500000000000000000000000000000000000000000081525060200191505060405180910390fd5b6000600a546064606e600b54600460009054906101000a900473ffffffffffffffffffffffffffffffffffffffff1673ffffffffffffffffffffffffffffffffffffffff166398d5fdca6040518163ffffffff1660e01b815260040160206040518083038186803b158015610e9657600080fd5b505afa158015610eaa573d6000803e3d6000fd5b505050506040513d6020811015610ec057600080fd5b810190808051906020019092919050505002600554020281610ede57fe5b0481610ee657fe5b049050600081600654039050600654821115610f06576006549150600090505b600060068190555060006005819055506004600860006101000a81548160ff02191690836004811115610f3557fe5b02179055506000811115610fad57600160009054906101000a900473ffffffffffffffffffffffffffffffffffffffff1673ffffffffffffffffffffffffffffffffffffffff166108fc829081150290604051600060405180830381858888f19350505050158015610fab573d6000803e3d6000fd5b505b6000809054906101000a900473ffffffffffffffffffffffffffffffffffffffff1673ffffffffffffffffffffffffffffffffffffffff166108fc839081150290604051600060405180830381858888f19350505050158015611014573d6000803e3d6000fd5b5061101e85611ca1565b5050505050565b600160009054906101000a900473ffffffffffffffffffffffffffffffffffffffff1681565b6000611103600654600460009054906101000a900473ffffffffffffffffffffffffffffffffffffffff1673ffffffffffffffffffffffffffffffffffffffff166398d5fdca6040518163ffffffff1660e01b815260040160206040518083038186803b1580156110bb57600080fd5b505afa1580156110cf573d6000803e3d6000fd5b505050506040513d60208110156110e557600080fd5b81019080805190602001909291905050506110fe610ae1565b6105a3565b905090565b6000809054906101000a900473ffffffffffffffffffffffffffffffffffffffff168073ffffffffffffffffffffffffffffffffffffffff163373ffffffffffffffffffffffffffffffffffffffff16146111cb576040517f08c379a00000000000000000000000000000000000000000000000000000000081526004018080602001828103825260188152602001807f54582073656e742062792077726f6e67206163636f756e74000000000000000081525060200191505060405180910390fd5b60028060048111156111d957fe5b600860009054906101000a900460ff1660048111156111f457fe5b14611267576040517f08c379a000000000000000000000000000000000000000000000000000000000815260040180806020018281038252600b8152602001807f57726f6e6720737461676500000000000000000000000000000000000000000081525060200191505060405180910390fd5b60006005549050600060068190555060006005819055506004600860006101000a81548160ff0219169083600481111561129d57fe5b021790555060001515600360009054906101000a900473ffffffffffffffffffffffffffffffffffffffff1673ffffffffffffffffffffffffffffffffffffffff1663a9059cbb6000809054906101000a900473ffffffffffffffffffffffffffffffffffffffff16846040518363ffffffff1660e01b8152600401808373ffffffffffffffffffffffffffffffffffffffff1673ffffffffffffffffffffffffffffffffffffffff16815260200182815260200192505050602060405180830381600087803b15801561137057600080fd5b505af1158015611384573d6000803e3d6000fd5b505050506040513d602081101561139a57600080fd5b810190808051906020019092919050505015151415611421576040517f08c379a00000000000000000000000000000000000000000000000000000000081526004018080602001828103825260198152602001807f556e61626c6520746f20776974686472617720746f6b656e730000000000000081525060200191505060405180910390fd5b61142a84611ca1565b50505050565b6000809054906101000a900473ffffffffffffffffffffffffffffffffffffffff1681565b6000809054906101000a900473ffffffffffffffffffffffffffffffffffffffff168073ffffffffffffffffffffffffffffffffffffffff163373ffffffffffffffffffffffffffffffffffffffff1614611518576040517f08c379a00000000000000000000000000000000000000000000000000000000081526004018080602001828103825260188152602001807f54582073656e742062792077726f6e67206163636f756e74000000000000000081525060200191505060405180910390fd5b600180600481111561152657fe5b600860009054906101000a900460ff16600481111561154157fe5b146115b4576040517f08c379a000000000000000000000000000000000000000000000000000000000815260040180806020018281038252600b8152602001807f57726f6e6720737461676500000000000000000000000000000000000000000081525060200191505060405180910390fd5b826005819055506002600860006101000a81548160ff021916908360048111156115da57fe5b021790555060001515600360009054906101000a900473ffffffffffffffffffffffffffffffffffffffff1673ffffffffffffffffffffffffffffffffffffffff166323b872dd3330876040518463ffffffff1660e01b8152600401808473ffffffffffffffffffffffffffffffffffffffff1673ffffffffffffffffffffffffffffffffffffffff1681526020018373ffffffffffffffffffffffffffffffffffffffff1673ffffffffffffffffffffffffffffffffffffffff1681526020018281526020019350505050602060405180830381600087803b1580156116c057600080fd5b505af11580156116d4573d6000803e3d6000fd5b505050506040513d60208110156116ea57600080fd5b810190808051906020019092919050505015151415611754576040517f08c379a0000000000000000000000000000000000000000000000000000000008152600401808060200182810382526033815260200180611e356033913960400191505060405180910390fd5b505050565b600160009054906101000a900473ffffffffffffffffffffffffffffffffffffffff168073ffffffffffffffffffffffffffffffffffffffff163373ffffffffffffffffffffffffffffffffffffffff161461181d576040517f08c379a00000000000000000000000000000000000000000000000000000000081526004018080602001828103825260188152602001807f54582073656e742062792077726f6e67206163636f756e74000000000000000081525060200191505060405180910390fd5b600380600481111561182b57fe5b600860009054906101000a900460ff16600481111561184657fe5b146118b9576040517f08c379a000000000000000000000000000000000000000000000000000000000815260040180806020018281038252600b8152602001807f57726f6e6720737461676500000000000000000000000000000000000000000081525060200191505060405180910390fd5b6000600654905060006118ca610ae1565b9050600060068190555060006005819055506004600860006101000a81548160ff021916908360048111156118fb57fe5b021790555060001515600360009054906101000a900473ffffffffffffffffffffffffffffffffffffffff1673ffffffffffffffffffffffffffffffffffffffff166323b872dd3330856040518463ffffffff1660e01b8152600401808473ffffffffffffffffffffffffffffffffffffffff1673ffffffffffffffffffffffffffffffffffffffff1681526020018373ffffffffffffffffffffffffffffffffffffffff1673ffffffffffffffffffffffffffffffffffffffff1681526020018281526020019350505050602060405180830381600087803b1580156119e157600080fd5b505af11580156119f5573d6000803e3d6000fd5b505050506040513d6020811015611a0b57600080fd5b810190808051906020019092919050505015151415611a75576040517f08c379a000000000000000000000000000000000000000000000000000000000815260040180806020018281038252602e815260200180611ea9602e913960400191505060405180910390fd5b60001515600360009054906101000a900473ffffffffffffffffffffffffffffffffffffffff1673ffffffffffffffffffffffffffffffffffffffff1663a9059cbb6000809054906101000a900473ffffffffffffffffffffffffffffffffffffffff16846040518363ffffffff1660e01b8152600401808373ffffffffffffffffffffffffffffffffffffffff1673ffffffffffffffffffffffffffffffffffffffff16815260200182815260200192505050602060405180830381600087803b158015611b4357600080fd5b505af1158015611b57573d6000803e3d6000fd5b505050506040513d6020811015611b6d57600080fd5b810190808051906020019092919050505015151415611bd7576040517f08c379a000000000000000000000000000000000000000000000000000000000815260040180806020018281038252602b815260200180611de3602b913960400191505060405180910390fd5b600160009054906101000a900473ffffffffffffffffffffffffffffffffffffffff1673ffffffffffffffffffffffffffffffffffffffff166108fc839081150290604051600060405180830381858888f19350505050158015611c3f573d6000803e3d6000fd5b50611c4985611ca1565b5050505050565b60006007544203905090565b60075481565b60006009546002546005540281611c7557fe5b04905090565b600460009054906101000a900473ffffffffffffffffffffffffffffffffffffffff1681565b6004806004811115611caf57fe5b600860009054906101000a900460ff166004811115611cca57fe5b14611d3d576040517f08c379a000000000000000000000000000000000000000000000000000000000815260040180806020018281038252600b8152602001807f57726f6e6720737461676500000000000000000000000000000000000000000081525060200191505060405180910390fd5b8115611dde57600460009054906101000a900473ffffffffffffffffffffffffffffffffffffffff1673ffffffffffffffffffffffffffffffffffffffff16639cb8a26a6040518163ffffffff1660e01b8152600401600060405180830381600087803b158015611dad57600080fd5b505af1158015611dc1573d6000803e3d6000fd5b505050503373ffffffffffffffffffffffffffffffffffffffff16ff5b505056fe556e61626c6520746f207472616e7366657220746f6b656e7320666f727761726420746f206c656e646572436f6c6c61746572616c206e6f7420696e2064616e676572206f66206c69717569646174696f6e4e6f7420656e6f75676820616c6c6f77616e636520746f20616d6f756e7420746f207468652073756d20737065636966696564416d6f756e74206f6620636f6c6c61746572616c2073656e7420646f6573206e6f7420616d6f756e7420746f206f766572203135302520636f6c6c61746572616c4e6f7420656e6f75676820746f6b656e20616c6c6f77616e636520746f20636f76657220746f74616c2064656274556e61626c6520746f207472616e7366657220636f6c6c61746572616c206261636b656420746f6b656e73a265627a7a723158207302e7c2f887d272f3ad6c8457a6bb51fece2ba1ccaff374e69d9d728e2f746664736f6c634300050c0032608060405234801561001057600080fd5b50336000806101000a81548173ffffffffffffffffffffffffffffffffffffffff021916908373ffffffffffffffffffffffffffffffffffffffff1602179055506102d5806100606000396000f3fe608060405234801561001057600080fd5b50600436106100935760003560e01c80638da5cb5b116100665780638da5cb5b1461010c57806394ddd52b1461015657806398d5fdca146101845780639cb8a26a146101a2578063b5eb9c87146101ac57610093565b806302c23e5214610098578063082495e1146100c6578063673a7e28146100e457806388e2f29b146100ee575b600080fd5b6100c4600480360360208110156100ae57600080fd5b81019080803590602001909291905050506101ca565b005b6100ce6101d6565b6040518082815260200191505060405180910390f35b6100ec6101dc565b005b6100f66101de565b6040518082815260200191505060405180910390f35b6101146101e4565b604051808273ffffffffffffffffffffffffffffffffffffffff1673ffffffffffffffffffffffffffffffffffffffff16815260200191505060405180910390f35b6101826004803603602081101561016c57600080fd5b8101908080359060200190929190505050610209565b005b61018c61021a565b6040518082815260200191505060405180910390f35b6101aa610224565b005b6101b4610296565b6040518082815260200191505060405180910390f35b6101d381610209565b50565b60015481565b565b60025481565b6000809054906101000a900473ffffffffffffffffffffffffffffffffffffffff1681565b806002819055504260018190555050565b6000600254905090565b6000809054906101000a900473ffffffffffffffffffffffffffffffffffffffff1673ffffffffffffffffffffffffffffffffffffffff163373ffffffffffffffffffffffffffffffffffffffff161461027d57600080fd5b3373ffffffffffffffffffffffffffffffffffffffff16ff5b600060015490509056fea265627a7a723158202fa253ac1e7a7b183e51f184fd1ccb0e10d358bb9a35d228126b1eadbd6e7e7b64736f6c634300050c0032",
  "source": "pragma solidity >=0.5.0 <0.6.0;\n\n/*\nLicense (MIT) reminder:\nTHE SOFTWARE IS PROVIDED \"AS IS\", WITHOUT WARRANTY OF ANY KIND, EXPRESS OR\nIMPLIED, INCLUDING BUT NOT LIMITED TO THE WARRANTIES OF MERCHANTABILITY,\nFITNESS FOR A PARTICULAR PURPOSE AND NONINFRINGEMENT. IN NO EVENT SHALL THE\nAUTHORS OR COPYRIGHT HOLDERS BE LIABLE FOR ANY CLAIM, DAMAGES OR OTHER\nLIABILITY, WHETHER IN AN ACTION OF CONTRACT, TORT OR OTHERWISE, ARISING FROM,\nOUT OF OR IN CONNECTION WITH THE SOFTWARE OR THE USE OR OTHER DEALINGS IN THE\nSOFTWARE.\n\nContract:\nThis is a very thin lending contract, without any additional features, it allows a party to let another party borrow tokens, with liquidation capabilities.\nIt was created mostly for learning and fun but also as I couldn't find something as simple as this, this theoretically answers the question \"How do I short [token that isn't on a margin platform]\". \nWith the license extract above in mind, this contract was tested to some extent, but is not audited by any 3rd party, and most likely has something wrong with it.\nThe contract was tested with 18 decimals tokens ONLY, which is most of them but not all.\nIt IS NOT meant to be used \"as is\", in its default state the price updater is manually updated for automated testing purposes, a price updater using oraclize is provided alongside it but requires you to\nchange manually the imported contract file.\n*/\n\nimport \"./ERC20Interface.sol\";\nimport \"./PriceUpdaterInterface.sol\";\nimport \"./PriceUpdaterTest.sol\";\n\ncontract LendingContract {\n\taddress payable\t\t\tpublic lender;\n\taddress payable\t\t\tpublic borrower;\n\tuint \t\t\t\t\tpublic rate; // per second, so 5% annual would be ~1584404390, 10% is ~3170979198, so on, assuming 100% per sec is 10**18. So to get fees, ((sum of link) * rate / size) * seconds_since_borrow\n\tERC20Interface \t\t\tpublic tokenContract;\n\tPriceUpdaterInterface\tpublic priceUpdater;\n\n\tuint public tokensDeposited = 0;\n\tuint public collateralDeposited = 0;\n\tuint public signingTime = 0;\n\n\tenum Stage { created, waitingForTokens, waitingForCollateral, working, finished }\n\tStage public currentStage = Stage.created;\n\n\tuint private size = 1000000000000000000; // 1 ether // 10**18\n\tuint private tokenSize = 1000000000000000000; // 1 ether // 10**18 // represents the token's decimal, NOTE: Only tested with 18 decimal tokens\n\tuint private priceSize = 1000000000; // 1 gwei in wei\n\tuint private maxTimeFromUpdate = 60*5; // 5 minutes in seconds\n\n\t/*\n\t----------------------------------------\n\t- Modifiers\n\t----------------------------------------\n\t*/\n\tmodifier onlyStage(Stage stage) {\n\t\trequire(currentStage == stage, \"Wrong stage\");\n\t\t_;\n\t}\n\n\tmodifier onlyBy(address account) {\n        require(msg.sender == account, \"TX sent by wrong account\");\n        _;\n    }\n\n\tmodifier onlyWhenRecentlyUpdated() {\n\t\trequire(now - maxTimeFromUpdate < priceUpdater.getPriceUpdateTime(), \"Price was not updated recently\");\n\t\t_;\n\t}\n\n\tmodifier onlyWhenPriceUnderLiquidation() {\n\t\trequire(getLiquidationDanger(), \"Collateral not in danger of liquidation\");\n\t\t_;\n\t}\n\n\t/*\n\t----------------------------------------\n\t- View functions\n\t----------------------------------------\n\t*/\n\tfunction getLoanTime() public view returns (uint val) {\n\t\treturn (now - signingTime);\n\t}\n\n\tfunction getDebtPerTime() public view returns (uint val) {\n\t\treturn ((tokensDeposited) * rate / size);\n\t}\n\n\tfunction getRemainingFees() public view returns (uint val) {\n\t\treturn getDebtPerTime() * getLoanTime();\n\t}\n\n\tfunction getTotalDebt() public view returns (uint val) {\n\t\treturn tokensDeposited + getRemainingFees();\n\t}\n\n\tfunction getLiquidationDanger() public view returns (bool success) {\n\t\treturn getLiquidationDanger(collateralDeposited, priceUpdater.getPrice(), getTotalDebt());\n\t}\n\n\tfunction getLiquidationDanger(uint _collateral, uint _price, uint _tokens) public view returns (bool success) {\n\t\treturn (_collateral / _price) < ((_tokens * 150) / 100 * priceSize) / tokenSize;\n\t}\n\t\n\t/*\n\t----------------------------------------\n\t- Stages created -> working\n\t----------------------------------------\n\t*/\n\tconstructor(address payable _lender, address payable _borrower, uint _rate, address _tokenContractAddress) public {\n\t\tlender = _lender;\n\t\tborrower = _borrower;\n\t\trate = _rate;\n\t\ttokenContract = ERC20Interface(_tokenContractAddress); //0x20fE562d797A42Dcb3399062AE9546cd06f63280); - Ropsten chainlink token contract\n\t\tpriceUpdater = new PriceUpdater();\n\t\tcurrentStage = Stage.waitingForTokens;\n\t}\n\n\tfunction depositTokens(uint sum) public onlyBy(lender) onlyStage(Stage.waitingForTokens) {\n\t\ttokensDeposited = sum;\n\t\tcurrentStage = Stage.waitingForCollateral;\n\n\t\tif(tokenContract.transferFrom(msg.sender, address(this), sum) == false) {\n\t\t\trevert(\"Not enough allowance to amount to the sum specified\");\n\t\t}\n\t}\n\n\tfunction sign() public payable onlyBy(borrower) onlyWhenRecentlyUpdated() onlyStage(Stage.waitingForCollateral) {\n\t\trequire(getLiquidationDanger(msg.value, priceUpdater.getPrice(), tokensDeposited) == false, \"Amount of collateral sent does not amount to over 150% collateral\");\n\t\tcollateralDeposited = msg.value;\n\t\tsigningTime = now;\n\t\tcurrentStage = Stage.working;\n\n\t\tif(tokenContract.transfer(msg.sender, tokensDeposited) == false) {\n\t\t\trevert(\"Unable to transfer collateral backed tokens\");\n\t\t}\n\t}\n\n\t/*\n\t----------------------------------------\n\t- Contract finishing functions\n\t----------------------------------------\n\t*/\n\tfunction withdrawTokensPrematurely(bool selfDestructConfirm) public onlyBy(lender) onlyStage(Stage.waitingForCollateral) {\n\t\tuint tokensDepositedTemp = tokensDeposited;\n\n\t\tcollateralDeposited = 0;\n\t\ttokensDeposited = 0;\n\t\tcurrentStage = Stage.finished;\n\n\t\tif(tokenContract.transfer(lender, tokensDepositedTemp) == false) {\n\t\t\trevert(\"Unable to withdraw tokens\");\n\t\t}\n\t\t\n\t\tselfDestruct(selfDestructConfirm);\n\t}\n\n\tfunction liquidatePanic(bool selfDestructConfirm) public onlyBy(lender) onlyWhenRecentlyUpdated() onlyWhenPriceUnderLiquidation() onlyStage(Stage.working) {\n\t\tuint depositToLender = (((tokensDeposited * (priceUpdater.getPrice() * priceSize)) * 110) / 100) / tokenSize;\n\t\tuint depositToBorrower = collateralDeposited - depositToLender;\n\n\t\t// If there isn't even 110% collateral available\n\t\tif(depositToLender > collateralDeposited) {\n\t\t\tdepositToLender = collateralDeposited;\n\t\t\tdepositToBorrower = 0;\n\t\t}\n\n\t\tcollateralDeposited = 0;\n\t\ttokensDeposited = 0;\n\t\tcurrentStage = Stage.finished;\n\n\t\tif(depositToBorrower > 0) {\n\t\t\tborrower.transfer(depositToBorrower);\n\t\t}\n\n\t\tlender.transfer(depositToLender);\n\n\t\tselfDestruct(selfDestructConfirm);\n\t}\n\n\tfunction returnCollateral(bool selfDestructConfirm) public onlyBy(borrower) onlyStage(Stage.working) {\n\t\tuint collateralDepositedTemp = collateralDeposited;\n\t\tuint tokensDepositedTemp = getTotalDebt();\n\n\t\tcollateralDeposited = 0;\n\t\ttokensDeposited = 0;\n\t\tcurrentStage = Stage.finished;\n\n\t\t// Receive the tokens back\n\t\tif(tokenContract.transferFrom(msg.sender, address(this), tokensDepositedTemp) == false) {\n\t\t\trevert(\"Not enough token allowance to cover total debt\");\n\t\t}\n\n\t\t// Send the tokens further down the line to the original lender\n\t\tif(tokenContract.transfer(lender, tokensDepositedTemp) == false) {\n\t\t\trevert(\"Unable to transfer tokens forward to lender\");\n\t\t}\n\n\t\t// Return all of the collateral to the borrower\n\t\tborrower.transfer(collateralDepositedTemp);\n\n\t\tselfDestruct(selfDestructConfirm);\n\t}\n\n\tfunction selfDestruct(bool confirm) private onlyStage(Stage.finished) {\n\t\tif(confirm) {\n\t\t\tpriceUpdater.selfDestruct();\n\t\t\tselfdestruct(msg.sender);\n\t\t}\n\t}\n}\n",
  "sourcePath": "C:/Users/Sergey/sf/solidity-simple-lending-contract/contracts/LendingContract.sol",
  "compiler": {
    "name": "solc",
    "version": "0.5.12+commit.7709ece9.Emscripten.clang"
  },
  "schemaVersion": "3.0.19",
  "updatedAt": "2019-11-25T14:19:32.073Z",
  "networkType": "ethereum",
  "devdoc": {
    "methods": {}
  },
  "userdoc": {
    "methods": {}
  }
}