{
  "contractName": "PriceUpdater",
  "abi": [
    {
      "inputs": [],
      "payable": false,
      "stateMutability": "nonpayable",
      "type": "constructor"
    },
    {
      "constant": true,
      "inputs": [],
      "name": "owner",
      "outputs": [
        {
          "internalType": "address payable",
          "name": "",
          "type": "address"
        }
      ],
      "payable": false,
      "stateMutability": "view",
      "type": "function"
    },
    {
      "constant": true,
      "inputs": [],
      "name": "updatedPrice",
      "outputs": [
        {
          "internalType": "uint256",
          "name": "",
          "type": "uint256"
        }
      ],
      "payable": false,
      "stateMutability": "view",
      "type": "function"
    },
    {
      "constant": true,
      "inputs": [],
      "name": "updatedPriceTimeLast",
      "outputs": [
        {
          "internalType": "uint256",
          "name": "",
          "type": "uint256"
        }
      ],
      "payable": false,
      "stateMutability": "view",
      "type": "function"
    },
    {
      "constant": false,
      "inputs": [],
      "name": "selfDestruct",
      "outputs": [],
      "payable": false,
      "stateMutability": "nonpayable",
      "type": "function"
    },
    {
      "constant": false,
      "inputs": [],
      "name": "updatePrice",
      "outputs": [],
      "payable": false,
      "stateMutability": "nonpayable",
      "type": "function"
    },
    {
      "constant": true,
      "inputs": [],
      "name": "getPrice",
      "outputs": [
        {
          "internalType": "uint256",
          "name": "priceInGwei",
          "type": "uint256"
        }
      ],
      "payable": false,
      "stateMutability": "view",
      "type": "function"
    },
    {
      "constant": true,
      "inputs": [],
      "name": "getPriceUpdateTime",
      "outputs": [
        {
          "internalType": "uint256",
          "name": "timeInSeconds",
          "type": "uint256"
        }
      ],
      "payable": false,
      "stateMutability": "view",
      "type": "function"
    },
    {
      "constant": false,
      "inputs": [
        {
          "internalType": "uint256",
          "name": "newPrice",
          "type": "uint256"
        }
      ],
      "name": "updatePriceTest",
      "outputs": [],
      "payable": false,
      "stateMutability": "nonpayable",
      "type": "function"
    },
    {
      "constant": false,
      "inputs": [
        {
          "internalType": "uint256",
          "name": "newPrice",
          "type": "uint256"
        }
      ],
      "name": "updatePriceFinalize",
      "outputs": [],
      "payable": false,
      "stateMutability": "nonpayable",
      "type": "function"
    }
  ],
  "bytecode": "0x608060405234801561001057600080fd5b50336000806101000a81548173ffffffffffffffffffffffffffffffffffffffff021916908373ffffffffffffffffffffffffffffffffffffffff1602179055506102d5806100606000396000f3fe608060405234801561001057600080fd5b50600436106100935760003560e01c80638da5cb5b116100665780638da5cb5b1461010c57806394ddd52b1461015657806398d5fdca146101845780639cb8a26a146101a2578063b5eb9c87146101ac57610093565b806302c23e5214610098578063082495e1146100c6578063673a7e28146100e457806388e2f29b146100ee575b600080fd5b6100c4600480360360208110156100ae57600080fd5b81019080803590602001909291905050506101ca565b005b6100ce6101d6565b6040518082815260200191505060405180910390f35b6100ec6101dc565b005b6100f66101de565b6040518082815260200191505060405180910390f35b6101146101e4565b604051808273ffffffffffffffffffffffffffffffffffffffff1673ffffffffffffffffffffffffffffffffffffffff16815260200191505060405180910390f35b6101826004803603602081101561016c57600080fd5b8101908080359060200190929190505050610209565b005b61018c61021a565b6040518082815260200191505060405180910390f35b6101aa610224565b005b6101b4610296565b6040518082815260200191505060405180910390f35b6101d381610209565b50565b60015481565b565b60025481565b6000809054906101000a900473ffffffffffffffffffffffffffffffffffffffff1681565b806002819055504260018190555050565b6000600254905090565b6000809054906101000a900473ffffffffffffffffffffffffffffffffffffffff1673ffffffffffffffffffffffffffffffffffffffff163373ffffffffffffffffffffffffffffffffffffffff161461027d57600080fd5b3373ffffffffffffffffffffffffffffffffffffffff16ff5b600060015490509056fea265627a7a723158202fa253ac1e7a7b183e51f184fd1ccb0e10d358bb9a35d228126b1eadbd6e7e7b64736f6c634300050c0032",
  "source": "pragma solidity >=0.5.0 <0.6.0;\n\nimport \"./PriceUpdaterInterface.sol\";\n\ncontract PriceUpdater is PriceUpdaterInterface {\n\taddress payable public owner;\n\tuint public updatedPriceTimeLast;\n\tuint public updatedPrice; // price in gwei\n\n\t//uint public decimalReceived = 8; // These aren't needed here\n\t//uint public decimalExpected = 9;\n\n\tconstructor() public {\n\t\towner = msg.sender;\n\t}\n\t\n\tfunction selfDestruct() public {\n\t\trequire(msg.sender == owner);\n\t\tselfdestruct(msg.sender);\n\t}\n\n\tfunction updatePrice() public {\n\t\t// Here is where an external oracle does its thing, for testing purposes we'll call updatePriceTest()\n\t}\n\n\tfunction getPrice() public view returns(uint priceInGwei) {\n\t\treturn updatedPrice; // If there are issues with an oracle response not having enough gas, you can techincally move the parsing mechanism here\n\t}\n\n\tfunction getPriceUpdateTime() public view returns(uint timeInSeconds) {\n\t\treturn updatedPriceTimeLast;\n\t}\n\n\t// \n\tfunction updatePriceTest(uint newPrice) public {\n\t\tupdatePriceFinalize(newPrice);\t\n\t}\n\n\t// This is a test replacement to a real oracle\n\tfunction updatePriceFinalize(uint newPrice) public {\n\t\tupdatedPrice = newPrice;\n\t\tupdatedPriceTimeLast = now;\n\t}\n}",
  "sourcePath": "C:\\Users\\Sergey\\sf\\solidity-simple-lending-contract\\contracts\\PriceUpdaterTest.sol",
  "compiler": {
    "name": "solc",
    "version": "0.5.12+commit.7709ece9.Emscripten.clang"
  },
  "schemaVersion": "3.0.19",
  "updatedAt": "2019-11-25T14:19:29.985Z",
  "devdoc": {
    "methods": {}
  },
  "userdoc": {
    "methods": {}
  }
}